:100000000C945E000C9497030C94C5030C940804A4
:100010000C947B000C947B000C947B000C947B0074
:100020000C947B000C947B000C947B000C947B0064
:100030000C947B000C947B000C947B000C947B0054
:100040000C947B000C947B000C947B000C947B0044
:100050000C947B000C947B000C947B000C947B0034
:100060000C947B000C947B0041726475696E6F2068
:100070007069616E6F0043350042340041340047BF
:100080003400463400453400443400433400504FBB
:1000900054524542414E20524553455400474F5417
:1000A0004F564F004E41535441564954450050520B
:1000B000454B4944005041555A41000011241FBE90
:1000C000CFEFD8E0DEBFCDBF11E0A0E0B1E0E4E2C9
:1000D000F4E102C005900D92A031B107D9F721E0FB
:1000E000A0E1B1E001C01D92AB3DB207E1F70E9473
:1000F000D8060C94100A0C940000ECE7F0E0808124
:100100008F738083808180648083EAE7F0E0808160
:10011000887F8083808187608083808180688083FE
:100120000895982F9F7031F0EBE7F0E09081916097
:10013000908305C0EBE7F0E090819E7F908387324B
:1001400041F4ECE7F0E090819F7390839081906C94
:100150009083ECE7F0E09081907F908390818F70A6
:10016000892B8083EAE7F0E080818064808380913E
:100170007A0084FFFCCFEAE7F0E080818061808331
:100180008091780090917900089588B1806388B952
:100190001092BC001092B90088E48093B8002FEF51
:1001A00080E792E0215080409040E1F700C00000DD
:1001B000089594EA9093BC0020E030E09091BC0058
:1001C000992344F0A9014F5F5F4F293E3340B8F4B3
:1001D0009A01F4CF8093BB0084E88093BC0080E058
:1001E00090E001C0C9012091BC00222354F09C0181
:1001F0002F5F3F4F893E9340A8F381E0089581E04F
:10020000089580E008958093BB0084E88093BC004B
:1002100080E090E001C0C9012091BC00222344F09D
:100220009C012F5F3F4F893E9340A8F381E00895E2
:1002300080E00895ECEBF0E084E98083108208957B
:10024000CF93C82F8EE40E94D9008C2F88600E9423
:1002500003010E941A01CF9108951F93CF93DF935A
:10026000C82F611102C010E001C011E0C4FD02C03E
:1002700080E001C080E1C5FD8062C6FD8064CC23C2
:100280000CF48068D82FD12B8D2F84600E94200120
:100290008FE19EE40197F1F700C000008D2F0E94CE
:1002A0002001C0FD02C080E001C080E1C1FD80628C
:1002B000C2FD8064C3FD8068C82FC12B8C2F846071
:1002C0000E9420018FE19EE40197F1F700C0000039
:1002D0008C2F0E942001DF91CF911F91089560E043
:1002E00081E00E942D0160E080E80E942D011092C3
:1002F00010010895CF9383E0CFEFC80F8823B9F0A2
:1003000084E30E9420018FE39CE90197F1F700C08C
:10031000000080E30E9420019FEF21EE84E09150D5
:1003200020408040E1F700C000008C2FE5CF84E240
:100330000E9420018FE39CE90197F1F700C00000C3
:1003400080E20E9420018FE39CE90197F1F700C051
:10035000000060E088E20E942D0160E08CE00E94D5
:100360002D010E946F01CF910895CF93C82F8091E6
:100370001001803121F460E080EC0E942D01809119
:100380001001803231F460E080E80E942D0110926B
:100390001001809110018F5F8093100161E08C2F1C
:1003A0000E942D01CF9108950F931F93CF93DF9358
:1003B000EC018881882301F180911001803121F4C2
:1003C00060E080EC0E942D0180911001803231F4B8
:1003D00060E080E80E942D011092100180911001D0
:1003E0008F5F809310018E010F5F1F4F61E0888146
:1003F0000E942D01E801DDCFDF91CF911F910F9178
:1004000008958F929F92AF92BF92DF92EF92FF92E8
:100410000F931F93CF93DF93CDB7DEB764970FB6DB
:10042000F894DEBF0FBECDBFFE01B29601911191CF
:100430005F01D12C01C0540178018FEFE81AF80A4E
:10044000F8018491882309F4AAC0853209F0A3C079
:100450004801F2E08F0E911CF7018491282F30E0C3
:10046000205331092A30310510F491E001C090E0A9
:10047000992361F08B871C86CE010B960E94980908
:10048000D82E0D5F1F4FF401849101C0840189367D
:1004900081F128F4823659F08336E9F0CDCF8337E5
:1004A00041F0883721F18F3609F0C6CF1EC042E0F7
:1004B00021C04501F2E08F0E911CF501E080F18032
:1004C000F7018081882309F4B6CFFFEFEF1AFF0A06
:1004D0000E94B501F5CF750182E0E80EF11CF5012F
:1004E00080810E94B5015701A7CF48E003C040E1D9
:1004F00001C04AE050E07501F2E0EF0EF11CBE01D0
:100500006F5F7F4FF501808191810E94C80980E073
:1005100090E001C0CA01AC014F5F5F4FE1E0F0E045
:10052000EC0FFD1FE80FF91F20812111F3CF2D2DB6
:1005300030E08217930744F5D81A20E030E08D2D83
:1005400090E0281739075CF4EBE0F0E0EC0FFD1FBA
:10055000E20FF31F80E380832F5F3F4FF0CFEBE08C
:10056000F0E0EC0FFD1FE20FF31F1082BE016F5F82
:100570007F4FCE010B960E94B609BE01655F7F4F8B
:10058000CE0101960E94C109CE0101960E94D401BC
:100590005701D12C51CF0E94B50187014DCF6496F0
:1005A0000FB6F894DEBF0FBECDBFDF91CF911F9184
:1005B0000F91FF90EF90DF90BF90AF909F908F9042
:1005C00008954F925F926F927F928F929F92AF9217
:1005D000BF92CF92DF92EF92FF920F931F936B0126
:1005E0007C01BA01550F880B990B0E9476084B01CC
:1005F0005C01A70196010E942B090E943E086B0135
:100600007C01A501940160E070E080E89FE30E9416
:10061000CC0720E030E543EC57E40E942B090E9410
:100620003E084B015C0184B1816084B900E010E0B8
:1006300098010C151D052E053F05DCF5D501C401FB
:10064000BB201CF40196A11DB11DB595A7959795EA
:100650008795AC01BD012A013B01E1E04E1A51082A
:1006600061087108452B462B472B39F045E34A9525
:10067000F1F70000B301A201EECF45B1416045B9E9
:10068000AC01BD014150510961097109892B8A2BC7
:100690008B2B39F085E38A95F1F70000DB01CA0165
:1006A000EFCF85B18E7F85B90F5F1F4F2F4F3F4F23
:1006B000C0CF1F910F91FF90EF90DF90CF90BF9030
:1006C000AF909F908F907F906F905F904F90089524
:1006D000789408958DB381608DBB0895E9E6F0E0CC
:1006E00080818C7F808380818160808308958DB339
:1006F00082608DBB0895E9E6F0E08081837F80838E
:100700008081846080830895E8E6F0E080818160E4
:1007100080830895EBE6F0E0908121E030E002C0B4
:10072000220F331F8A95E2F7292B208308951F9209
:100730000F920FB60F9211242F933F934F935F9315
:100740006F937F938F939F93AF93BF93EF93FF9399
:100750004A9B0AC00E946F0185EB90E09F938F93A4
:100760000E9401020F900F90FF91EF91BF91AF9106
:100770009F918F917F916F915F914F913F912F91B9
:100780000F900FBE0F901F9018951F920F920FB6EB
:100790000F9211242F933F934F935F936F937F9307
:1007A0008F939F93AF93BF93EF93FF934B9B13C094
:1007B0000E946F018EEA90E09F938F930E94010246
:1007C00085B1806185B985B18D7F85B985B18B7F14
:1007D00085B90F900F904B990AC00E946F0184EA6F
:1007E00090E09F938F930E9401020F900F90FF91D2
:1007F000EF91BF91AF919F918F917F916F915F9199
:100800004F913F912F910F900FBE0F901F90189511
:100810001F920F920FB60F9211242F933F934F9375
:100820005F936F937F938F939F93AF93BF93EF9358
:10083000FF930E946F018DE990E09F938F930E9438
:1008400001022FEF89E698E1215080409040E1F7C6
:1008500000C000000E946F012FEF89E698E121504F
:1008600080409040E1F700C000008EE890E09F9348
:100870008F930E94010285B1806285B985B18B7F1B
:1008800085B940E050E060E070E0CB010E94E102F9
:100890000F900F900F900F90FF91EF91BF91AF913C
:1008A0009F918F917F916F915F914F913F912F9188
:1008B0000F900FBE0F901F90189584B1816084B97E
:1008C00084B1826084B984B1846084B984B1806168
:1008D00084B984B1806284B90E947D000E94C50001
:1008E0000E947A0180E40E94D90080EF0E940301F7
:1008F0000E941A010E946A030E946E030E947703FD
:100900000E947B030E9468038AB18C7F8AB98BB1F5
:1009100083608BB90E94840383E00E948A03089558
:10092000CF92DF92EF92FF92CF93DF934B9939C230
:100930006B017C0185B18F7E85B920E030E0A90193
:10094000C701B6010E94C707811107C085B1826047
:1009500085B985B18B7F85B90CC085B18D7F85B98F
:100960008FE39CE90197F1F700C0000085B1846036
:1009700085B920E030E040EA50E4C701B6010E94AA
:10098000C7078823CCF52AE939E949E950E4C701CA
:10099000B6010E94260988237CF1C0E0D1E048819D
:1009A00059816DEC7CEC8CEC9DE30E94E1029FEFA1
:1009B00021EE84E0915020408040E1F700C000002B
:1009C0000E946F018BE890E09F938F930E94010239
:1009D000809111019091120128813981FC01EE0F63
:1009E000FF1FED5EFE4F318320830196909312012D
:1009F000809311010F900F902AE939E949E950E4F9
:100A0000C701B6010E94C7078823CCF520E030E07B
:100A100048E950E4C701B6010E94260988237CF109
:100A2000C0E0D1E04A815B816DEC7CEC8CEC9DE315
:100A30000E94E1029FEF21EE84E09150204080402F
:100A4000E1F700C000000E946F0188E890E09F93EA
:100A50008F930E94010280911101909112012A81CD
:100A60003B81FC01EE0FFF1FED5EFE4F31832083C3
:100A7000019690931201809311010F900F902DE336
:100A80003AE047E950E4C701B6010E94C70788234E
:100A9000CCF52DEC3CEC44E950E4C701B6010E94D2
:100AA000260988237CF1C0E0D1E04C815D816DECAA
:100AB0007CEC8CEC9DE30E94E1029FEF21EE84E050
:100AC000915020408040E1F700C000000E946F017B
:100AD00085E890E09F938F930E940102809111011D
:100AE000909112012C813D81FC01EE0FFF1FED5E04
:100AF000FE4F318320830196909312018093110160
:100B00000F900F9023E333E343E950E4C701B601AC
:100B10000E94C7078823CCF520E030E040E950E48C
:100B2000C701B6010E94260988237CF1C0E0D1E00C
:100B30004E815F816DEC7CEC8CEC9DE30E94E102C8
:100B40009FEF21EE84E0915020408040E1F700C00B
:100B500000000E946F0182E890E09F938F930E94B3
:100B6000010280911101909112012E813F81FC01BF
:100B7000EE0FFF1FED5EFE4F3183208301969093B1
:100B80001201809311010F900F9026E636E646E899
:100B900050E4C701B6010E94C7078823CCF52AE9B3
:100BA00039E941E850E4C701B6010E9426098823CB
:100BB0007CF1C0E0D1E0488559856DEC7CEC8CEC93
:100BC0009DE30E94E1029FEF21EE84E091502040DE
:100BD0008040E1F700C000000E946F018FE790E0C5
:100BE0009F938F930E9401028091110190911201B5
:100BF00028853985FC01EE0FFF1FED5EFE4F318326
:100C00002083019690931201809311010F900F9011
:100C100023E333E343E750E4C701B6010E94C7076B
:100C20008823CCF52DEC3CEC4CE650E4C701B60132
:100C30000E94260988237CF1C0E0D1E04A855B85CB
:100C40006DEC7CEC8CEC9DE30E94E1029FEF21EEC9
:100C500084E0915020408040E1F700C000000E94F5
:100C60006F018CE790E09F938F930E940102809127
:100C70001101909112012A853B85FC01EE0FFF1FA7
:100C8000ED5EFE4F31832083019690931201809395
:100C900011010F900F9023E333E343E650E4C701C3
:100CA000B6010E94C7078823CCF523E333E343E56D
:100CB00050E4C701B6010E94260988237CF1C0E0F8
:100CC000D1E04C855D856DEC7CEC8CEC9DE30E9465
:100CD000E1029FEF21EE84E0915020408040E1F757
:100CE00000C000000E946F0189E790E09F938F93FE
:100CF0000E94010280911101909112012C853D8585
:100D0000FC01EE0FFF1FED5EFE4F31832083019645
:100D100090931201809311010F900F9023E333E31E
:100D200043E250E4C701B6010E94C7078823CCF50F
:100D30002DEC3CEC4CE150E4C701B6010E942609C1
:100D400088237CF1C0E0D1E04E855F856DEC7CECC2
:100D50008CEC9DE30E94E1029FEF21EE84E0915034
:100D600020408040E1F700C000000E946F0186E74C
:100D700090E09F938F930E940102809111019091C6
:100D800012012E853F85FC01EE0FFF1FED5EFE4F29
:100D900031832083019690931201809311010F906B
:100DA0000F90DF91CF91FF90EF90DF90CF9008955B
:100DB000CF93DF93CDB7DEB728970FB6F894DEBF99
:100DC0000FBECDBF0E945D040E946F0188E690E0D7
:100DD0009F938F930E94010219821A821B821C82A8
:100DE0000F900F9080E00E9491008C0169817A81C0
:100DF0008B819C8120E030E0A9010E942B096B01CE
:100E00007C01B80180E090E00E9474089B01AC0175
:100E1000C701B6010E945B076B017C0120E030E056
:100E200040EA50E40E942B0920E030EC4FE754E404
:100E30000E94CC074B015C01C982DA82EB82FC8202
:100E40000E9490044B99CECF2AE939E949ED5FE33E
:100E5000C501B4010E94C707882324F623E333E3C6
:100E600043EB5FE3C501B4010E94260988230CF41B
:100E7000B9CF0E946F0100E010E00436110508F0C0
:100E8000B1CFF801EE0FFF1FED5EFE4F40815181A3
:100E90006DEC7CEC8CEC9DE30E94E1022FEF83EC87
:100EA00099E0215080409040E1F700C000000F5FC2
:100EB0001F4FE3CF5058BB27AA270E9472070C94FC
:100EC000EC080E94DE0838F00E94E50820F039F4B2
:100ED0009F3F19F426F40C94DB080EF4E095E7FB31
:100EE0000C94D508E92F0E94FD0858F3BA17620741
:100EF00073078407950720F079F4A6F50C941F0971
:100F00000EF4E0950B2EBA2FA02D0B01B901900124
:100F10000C01CA01A0011124FF27591B99F0593F68
:100F200050F4503E68F11A16F040A22F232F342FB0
:100F30004427585FF3CF469537952795A795F040FE
:100F40005395C9F77EF41F16BA0B620B730B840B13
:100F5000BAF09150A1F0FF0FBB1F661F771F881FCB
:100F6000C2F70EC0BA0F621F731F841F48F4879523
:100F700077956795B795F7959E3F08F0B0CF939515
:100F8000880F08F09927EE0F9795879508950E948E
:100F9000B10808F481E008950E94E0070C94EC0881
:100FA0000E94E50858F00E94DE0840F029F45F3FF7
:100FB00029F00C94D50851110C9420090C94DB08ED
:100FC0000E94FD0868F39923B1F3552391F3951B13
:100FD000550BBB27AA2762177307840738F09F5F5A
:100FE0005F4F220F331F441FAA1FA9F335D00E2EC7
:100FF0003AF0E0E832D091505040E695001CCAF734
:101000002BD0FE2F29D0660F771F881FBB1F2617F6
:1010100037074807AB07B0E809F0BB0B802DBF01CD
:10102000FF2793585F4F3AF09E3F510578F00C949C
:10103000D5080C9420095F3FE4F3983ED4F38695DD
:1010400077956795B795F7959F5FC9F7880F911DBD
:101050009695879597F90895E1E0660F771F881FA9
:10106000BB1F621773078407BA0720F0621B730B5C
:10107000840BBA0BEE1F88F7E09508950E9445088F
:101080006894B1110C94200908950E94050988F014
:101090009F5798F0B92F9927B751B0F0E1F0660F3C
:1010A000771F881F991F1AF0BA95C9F714C0B1307D
:1010B00091F00E941F09B1E008950C941F09672F59
:1010C000782F8827B85F39F0B93FCCF386957795AC
:1010D0006795B395D9F73EF4909580957095619595
:1010E0007F4F8F4F9F4F0895E89409C097FB3EF4C0
:1010F00090958095709561957F4F8F4F9F4F992365
:10110000A9F0F92F96E9BB279395F69587957795E2
:101110006795B795F111F8CFFAF4BB0F11F460FFA2
:101120001BC06F5F7F4F8F4F9F4F16C0882311F0FA
:1011300096E911C0772321F09EE8872F762F05C00E
:10114000662371F096E8862F70E060E02AF09A95A9
:10115000660F771F881FDAF7880F9695879597F99E
:101160000895990F0008550FAA0BE0E8FEEF161638
:101170001706E807F907C0F012161306E407F5078B
:1011800098F0621B730B840B950B39F40A2661F0FF
:10119000232B242B252B21F408950A2609F4A140A2
:1011A000A6958FEF811D811D089597F99F6780E8AF
:1011B00070E060E008959FEF80EC089500240A94A9
:1011C0001616170618060906089500240A94121622
:1011D0001306140605060895092E0394000C11F455
:1011E000882352F0BB0F40F4BF2B11F460FF04C002
:1011F0006F5F7F4F8F4F9F4F089557FD9058440F5B
:10120000551F59F05F3F71F04795880F97FB991F65
:1012100061F09F3F79F08795089512161306140622
:10122000551FF2CF4695F1DF08C0161617061806AF
:10123000991FF1CF86957105610508940895E8948A
:10124000BB2766277727CB0197F908950E94B1083D
:1012500008F48FEF08950E943E090C94EC080E9458
:10126000DE0838F00E94E50820F0952311F00C9478
:10127000D5080C94DB0811240C9420090E94FD0869
:1012800070F3959FC1F3950F50E0551F629FF001D9
:10129000729FBB27F00DB11D639FAA27F00DB11DF2
:1012A000AA1F649F6627B00DA11D661F829F22277B
:1012B000B00DA11D621F739FB00DA11D621F839F02
:1012C000A00D611D221F749F3327A00D611D231FD8
:1012D000849F600D211D822F762F6A2F11249F5726
:1012E00050409AF0F1F088234AF0EE0FFF1FBB1F29
:1012F000661F771F881F91505040A9F79E3F5105E8
:1013000080F00C94D5080C9420095F3FE4F3983EDC
:10131000D4F3869577956795B795F795E7959F5F91
:10132000C1F7FE2B880F911D9695879597F9089523
:10133000FC0188279927E89421912032E9F329308C
:1013400010F02E30C8F32B3241F02D3239F468946E
:1013500004C00E94DE09820F911D219120532A3082
:10136000C0F31EF4909581959F4F0895FB01DC0119
:101370000D900020E9F7119701900D920020E1F700
:101380000895FB01DC0101900D920020E1F7089522
:101390004532510520F4423010F00C94D309FB0182
:1013A0001082CB010895BB274A3031F4992322F4EF
:1013B000BDE2909581959F4F0C94E7097AE0979F45
:1013C000902D879F802D910D11240895BB27FB013F
:1013D0005527AA27880F991FAA1FA41710F0A41B2E
:1013E00083955051B9F7A05DAA3308F0A95DA19388
:1013F000009779F7B111B1931192CB010C94000AC7
:10140000DC01FC01672F71917723E1F7329704C06B
:101410007C916D9370836291AE17BF07C8F30895F6
:04142000F894FFCF6E
:101424000501250149015D018801B801EE010B02A6
:00000001FF
